:020000040800F2
:1000000000180020DD3300082531000827310008E2
:10001000293100082B3100082D31000800000000B4
:100020000000000000000000000000002F31000868
:10003000313100080000000033310008353100087C
:10004000253400082534000825340008253400082C
:10005000253400082534000825340008253400081C
:10006000253400082534000825340008253400080C
:1000700025340008253400082534000825340008FC
:10008000253400082534000825340008000000004D
:1000900000000000000000000000000025340008FF
:1000A0000000000000000000000000000000000050
:1000B00041310008813300080000000025340008A9
:1000C000253400080000000000000000253400086E
:1000D000000000002534000825340008000000005E
:1000E000253400082534000800000000000000004E
:1000F0000000000000000000000000000000000000
:0C01000000000000000000005FF808F1A3
:1001100010B5054C237833B9044B13B10448AFF341
:1001200000800123237010BD50000020000000005B
:100130008034000808B5034B1BB103490348AFF3F3
:10014000008008BD0000000054000020803400083A
:1001500081F0004102E000BF83F0004330B54FEA78
:1001600041044FEA430594EA050F08BF90EA020FE5
:100170001FBF54EA000C55EA020C7FEA645C7FEA78
:10018000655C00F0E2804FEA5454D4EB5555B8BF9B
:100190006D420CDD2C4480EA020281EA030382EA0C
:1001A000000083EA010180EA020281EA0303362D9E
:1001B00088BF30BD11F0004F4FEA01314FF4801C71
:1001C0004CEA113102D0404261EB410113F0004F83
:1001D0004FEA03334CEA133302D0524263EB43033A
:1001E00094EA050F00F0A780A4F10104D5F1200ED8
:1001F0000DDB02FA0EFC22FA05F2801841F1000133
:1002000003FA0EF2801843FA05F359410EE0A5F106
:1002100020050EF1200E012A03FA0EFC28BF4CF037
:10022000020C43FA05F3C01851EBE37101F00045ED
:1002300007D54FF0000EDCF1000C7EEB00006EEBFA
:100240000101B1F5801F1BD3B1F5001F0CD3490884
:100250005FEA30004FEA3C0C04F101044FEA4452DB
:1002600012F5800F80F09A80BCF1004F08BF5FEA62
:10027000500C50F1000041EB045141EA050130BD42
:100280005FEA4C0C404141EB010111F4801FA4F1E5
:100290000104E9D191F0000F04BF01460020B1FA3A
:1002A00081F308BF2033A3F10B03B3F120020CDA72
:1002B0000C3208DD02F1140CC2F10C0201FA0CF050
:1002C00021FA02F10CE002F11402D8BFC2F1200CB5
:1002D00001FA02F120FA0CFCDCBF41EA0C0190406B
:1002E000E41AA2BF01EB0451294330BD6FEA0404B4
:1002F0001F3C1CDA0C340EDC04F11404C4F120029F
:1003000020FA04F001FA02F340EA030021FA04F3B0
:1003100045EA030130BDC4F10C04C4F1200220FA07
:1003200002F001FA04F340EA0300294630BD21FA45
:1003300004F0294630BD94F0000F83F4801306BF0B
:1003400081F480110134013D4EE77FEA645C18BFFF
:100350007FEA655C29D094EA050F08BF90EA020F96
:1003600005D054EA000C04BF1946104630BD91EA8E
:10037000030F1EBF0021002030BD5FEA545C05D191
:100380004000494128BF41F0004130BD14F58004D0
:100390003CBF01F5801130BD01F0004545F0FE4144
:1003A00041F470014FF0000030BD7FEA645C1ABF79
:1003B000194610467FEA655C1CBF0B46024650EAB0
:1003C000013406BF52EA033591EA030F41F40021DC
:1003D00030BD00BF90F0000F04BF0021704730B562
:1003E0004FF4806404F132044FF000054FF0000137
:1003F00050E700BF90F0000F04BF0021704730B5F8
:100400004FF4806404F1320410F0004548BF4042CC
:100410004FF000013EE700BF42004FEAE2014FEA21
:1004200031014FEA02701FBF12F07F4393F07F4FFC
:1004300081F06051704732F07F4208BF704793F0FF
:100440007F4F04BF41F40021704730B54FF4607412
:1004500001F0004521F000411CE700BF50EA010215
:1004600008BF704730B54FF000050AE050EA0102BE
:1004700008BF704730B511F0004502D5404261EB2E
:1004800041014FF4806404F132045FEA915C3FF46F
:10049000D8AE4FF003025FEADC0C18BF03325FEA0C
:1004A000DC0C18BF033202EBDC02C2F1200300FABD
:1004B00003FC20FA02F001FA03FE40EA0E0021FAE2
:1004C00002F11444BDE600BF70B54FF0FF0C4CF4D0
:1004D000E06C1CEA11541DBF1CEA135594EA0C0F82
:1004E00095EA0C0F00F0DEF82C4481EA030621EABD
:1004F0004C5123EA4C5350EA013518BF52EA0335F8
:1005000041F4801143F4801338D0A0FB02CE4FF0A9
:100510000005E1FB02E506F00042E0FB03E54FF0D9
:100520000006E1FB03569CF0000F18BF4EF0010ED1
:10053000A4F1FF04B6F5007F64F5407404D25FEACD
:100540004E0E6D4146EB060642EAC62141EA555180
:100550004FEAC52040EA5E504FEACE2EB4F1FD0CC2
:1005600088BFBCF5E06F1ED8BEF1004F08BF5FEA40
:10057000500E50F1000041EB045170BD06F00046F2
:1005800046EA010140EA020081EA0301B4EB5C049F
:10059000C2BFD4EB0C0541EA045170BD41F4801197
:1005A0004FF0000E013C00F3AB8014F1360FDEBFBC
:1005B000002001F0004170BDC4F10004203C35DA98
:1005C0000C341BDC04F11404C4F1200500FA05F31B
:1005D00020FA04F001FA05F240EA020001F00042BC
:1005E00021F0004110EBD37021FA04F642EB060132
:1005F0005EEA430E08BF20EAD37070BDC4F10C045C
:10060000C4F1200500FA04F320FA05F001FA04F21F
:1006100040EA020001F0004110EBD37041F100010B
:100620005EEA430E08BF20EAD37070BDC4F1200516
:1006300000FA05F24EEA020E20FA04F301FA05F27E
:1006400043EA020321FA04F001F0004121FA04F226
:1006500020EA020000EBD3705EEA430E08BF20EAF6
:10066000D37070BD94F0000F0FD101F00046400030
:1006700041EB010111F4801F08BF013CF7D041EAB2
:10068000060195F0000F18BF704703F000465200B6
:1006900043EB030313F4801F08BF013DF7D043EA87
:1006A0000603704794EA0C0F0CEA135518BF95EA3D
:1006B0000C0F0CD050EA410618BF52EA4306D1D1C4
:1006C00081EA030101F000414FF0000070BD50EAE3
:1006D000410606BF1046194652EA430619D094EA6D
:1006E0000C0F02D150EA013613D195EA0C0F05D157
:1006F00052EA03361CBF104619460AD181EA0301AB
:1007000001F0004141F0FE4141F470014FF0000062
:1007100070BD41F0FE4141F4780170BD70B54FF0FD
:10072000FF0C4CF4E06C1CEA11541DBF1CEA13557D
:1007300094EA0C0F95EA0C0F00F0A7F8A4EB05045F
:1007400081EA030E52EA03354FEA013100F0888056
:100750004FEA03334FF0805545EA131343EA12631F
:100760004FEA022245EA111545EA10654FEA0026D4
:100770000EF000419D4208BF964244F1FD0404F58D
:10078000407402D25B084FEA3202B61A65EB0305E9
:100790005B084FEA32024FF480104FF4002CB6EBA6
:1007A000020E75EB030E22BFB61A754640EA0C0026
:1007B0005B084FEA3202B6EB020E75EB030E22BF66
:1007C000B61A754640EA5C005B084FEA3202B6EBA7
:1007D000020E75EB030E22BFB61A754640EA9C0066
:1007E0005B084FEA3202B6EB020E75EB030E22BF36
:1007F000B61A754640EADC0055EA060E18D04FEAF4
:10080000051545EA16754FEA06164FEAC30343EA93
:1008100052734FEAC2025FEA1C1CC0D111F4801F60
:100820000BD141EA00014FF000004FF0004CB6E759
:1008300011F4801F04BF01430020B4F1FD0C88BFF8
:10084000BCF5E06F3FF6AFAEB5EB030C04BFB6EB03
:10085000020C5FEA500C50F1000041EB045170BDF6
:100860000EF0004E4EEA113114EB5C04C2BFD4EB23
:100870000C0541EA045170BD41F480114FF0000EA7
:10088000013C90E645EA060E8DE60CEA135594EA23
:100890000C0F08BF95EA0C0F3FF43BAF94EA0C0F26
:1008A0000AD150EA01347FF434AF95EA0C0F7FF49B
:1008B00025AF104619462CE795EA0C0F06D152EAEF
:1008C00003353FF4FDAE1046194622E750EA4106D3
:1008D00018BF52EA43067FF4C5AE50EA41047FF4E4
:1008E0000DAF52EA43057FF4EBAE12E74A0011D296
:1008F00012F5001211D20DD56FF47873B3EB62527A
:100900000ED44FEAC12343F0004343EA505323FA85
:1009100002F070474FF00000704750EA013002D1FA
:100920004FF0FF3070474FF000007047034B044A10
:100930005A6002F188325A60704700BF00200240BE
:1009400023016745024A136943F08003136170472E
:100950000020024000687047034BDB6813F0010F72
:100960000CBF0120002070470020024008B50A4B50
:100970001A6942F002021A6158611A6942F0400293
:100980001A61FFF7E9FF0028FBD0034A136923F03F
:100990000203136108BD00BF0020024038B50546C0
:1009A0000C460D4A136943F001031361FFF7D4FFAE
:1009B0000028FBD0A3B22B80FFF7CEFF0028FBD08E
:1009C000240C6C80FFF7C8FF0028FBD0024A136993
:1009D00023F00103136138BD0020024038B5244CD8
:1009E00000224FF40061204600F011FB214D00224F
:1009F0004FF48041284600F00AFB002210212046D7
:100A000000F005FB00222021204600F000FB002220
:100A10004FF40041284600F0FAFA00224021204617
:100A200000F0F5FA00224FF48051284600F0EFFA6A
:100A300000224FF48051204600F0E9FA00224FF4E2
:100A40008061284600F0E3FA00224FF40061284656
:100A500000F0DDFA00224FF40051284600F0D7FAEA
:100A600000224FF48071204600F0D1FA38BD00BF5B
:100A700000080140000C014038B5244C01224FF41D
:100A80000061204600F0C3FA214D01224FF480415D
:100A9000284600F0BCFA01221021204600F0B7FAE7
:100AA00001222021204600F0B2FA01224FF4004139
:100AB000284600F0ACFA01224021204600F0A7FAB7
:100AC00001224FF48051284600F0A1FA01224FF490
:100AD0008051204600F09BFA01224FF480612846A5
:100AE00000F095FA01224FF40061284600F08FFAD9
:100AF00001224FF40051284600F089FA01224FF4F8
:100B00008071204600F083FA38BD00BF0008014024
:100B1000000C014010B50446012806D0022C0AD072
:100B2000032C0ED0042C12D010BD012208210B483A
:100B300000F06DFAF2E701220421084800F067FA9C
:100B4000EEE701220221054800F061FAEAE70122FE
:100B50001146024800F05BFAE6E700BF00080140DA
:100B600010B50446012806D0022C0AD0032C0ED062
:100B7000042C12D010BD002208210B4800F047FAC7
:100B8000F2E700220421084800F041FAEEE70022D3
:100B90000221054800F03BFAEAE700220121024861
:100BA00000F035FAE6E700BF0008014010B5044642
:100BB000B0B1012C1ED0022C23D0032C27D0042C42
:100BC0002BD0052C30D0062C34D0072C39D0082C53
:100BD0003ED0092C43D00A2C48D00B2C4DD010BD50
:100BE00001224FF4006100F1804000F5843000F0F4
:100BF0000EFADEE701224FF48041234800F007FAA5
:100C0000D9E701221021214800F001FAD5E701229D
:100C100020211E4800F0FBF9D1E701224FF40041EA
:100C2000194800F0F4F9CCE701224021174800F000
:100C3000EEF9C8E701224FF48051134800F0E7F9BC
:100C4000C3E701224FF48051104800F0E0F9BEE7FD
:100C500001224FF480610C4800F0D9F9B9E7012274
:100C60004FF40061084800F0D2F9B4E701224FF4D4
:100C70000051054800F0CBF9AFE701224FF4807135
:100C8000024800F0C4F9AAE7000C01400008014046
:100C9000024BD862411A5963704700BF00040040FC
:100CA00000E01846431E0028FBD1704710B50446EB
:100CB0000E4B18784FF47A73B3FBF0F30C4A1068BC
:100CC000B0FBF3F000F0A0F868B90F2C01D90120B7
:100CD0000AE0002221464FF0FF3000F055F8034BA8
:100CE0005C60002000E0012010BD00BF000000207B
:100CF0004C00002008B5074A136843F01003136046
:100D0000032000F02FF80020FFF7D0FF02F05CF97D
:100D1000002008BD00200240034A1168034B1B78E5
:100D20000B441360704700BF9000002000000020BB
:100D3000014B1868704700BF9000002038B504468A
:100D4000FFF7F6FF0546B4F1FF3F02D0044B1B78D6
:100D50001C44FFF7EDFF401BA042FAD338BD00BF93
:100D600000000020074AD36823F4E0631B041B0C37
:100D7000000200F4E060184340F0BF6040F400302F
:100D8000D060704700ED00E030B4174BDB68C3F370
:100D90000223C3F10704042C28BF04241D1D062DC3
:100DA00018D9033B4FF0FF3505FA04F421EA04019A
:100DB000994005FA03F322EA0303194300280BDBE9
:100DC0000901C9B200F1604000F5614080F80013EC
:100DD00030BC70470023E5E700F00F000901C9B2FD
:100DE000024B1954F4E700BF00ED00E014ED00E001
:100DF00000F01F02400901239340024A42F82030CC
:100E0000704700BF00E100E00138B0F1807F0AD2F6
:100E1000064B5860064AF02182F8231000209860A3
:100E200007221A6070470120704700BF10E000E001
:100E300000ED00E0F0B482B00026354668E0002CFA
:100E400000F09680012C00D1CE68FF2B00F2A48028
:100E50008446FF2B00F2A380AC00DCF800200F27B3
:100E6000A74022EA070206FA04F42243CCF8002045
:100E70004A6812F0805F4AD05B4A946944F00104EA
:100E80009461926902F001020192019AAC08A71CD8
:100E9000564A52F8272005F00307BF004FF00F0C09
:100EA0000CFA07FC22EA0C0C514A90427DD002F564
:100EB000806290427BD002F58062904273D0032220
:100EC000BA4042EA0C020234484F47F824204A68EC
:100ED00012F4803F6DD0474C22681A4322604A6862
:100EE00012F4003F6BD0434C62681A4362604A6858
:100EF00012F4801F69D03F4CA2681A43A2604A686E
:100F000012F4001F67D03B4CE2681343E3600135E5
:100F10000F2D66D80122AA400B6813409A42F6D1E1
:100F20004C68122C2ED009D8022C28D087D9032C3B
:100F30002ED0112C89D1CE68043686E72E4FBC42C4
:100F400016D00CD92D4FBC4212D007F58037BC42C9
:100F50000ED0A7F58017BC427FF477AF08E0A7F565
:100F60008017BC4204D007F58037BC427FF46DAFD8
:100F70008C687CB1012C08D04261082665E7CE68F8
:100F8000083662E7CE680C365FE7026108265CE748
:100F900000265AE7042658E700F1040C59E7A5F1AA
:100FA0000804A40059E702228AE7002288E7012208
:100FB00086E7104C226822EA030222608FE70D4C7C
:100FC000626822EA0302626091E70A4CA26822EAA0
:100FD0000302A26093E7074CE26822EA0303E3609E
:100FE00095E702B0F0BC70470010024000000140DD
:100FF00000080140000401400000211000003110F1
:101000008368194201D1002070470120704712B94E
:10101000090401617047016170470000014B012222
:101020001A60704720000E4282B0084B1B68084AC5
:10103000A2FB03235B0A00FB03F0019000BF019BAE
:101040005A1E0192002BF9D102B070474C000020CB
:10105000D34D621070B582B00446036813F0010FDF
:101060002CD0AB4B5B6803F00C03042B1DD0A84BBA
:101070005B6803F00C03082B12D06368B3F5803F64
:1010800041D0002B55D103F1804303F504331A6896
:1010900022F480321A601A6822F480221A6037E043
:1010A0009B4B5B6813F4803FE7D0994B1B6813F4AC
:1010B000003F03D06368002B00F0AE81236813F07B
:1010C000020F76D0924B5B6813F00C0F5FD0904B01
:1010D0005B6803F00C03082B54D02369002B00F04D
:1010E0008A808C4B01221A60FFF722FE0546884B4E
:1010F0001B6813F0020F75D1FFF71AFE401B022880
:10110000F5D903208BE1824A136843F480331360DE
:10111000636843B3FFF70CFE05467D4B1B6813F471
:10112000003FCBD1FFF704FE401B6428F5D9032014
:1011300075E1B3F5A02F09D0754B1A6822F48032FF
:101140001A601A6822F480221A60E1E703F18043F2
:10115000A3F53C331A6842F480221A601A6842F4FC
:1011600080321A60D4E7FFF7E3FD0546684B1B6841
:1011700013F4003FA2D0FFF7DBFD401B6428F5D934
:1011800003204CE1624B5B6813F4803FA5D1604BB8
:101190001B6813F0020F04D02369012B01D001203A
:1011A0003DE15B4A136823F0F803616943EAC10338
:1011B0001360236813F0080F32D0A369002B5BD0B3
:1011C000554B01221A60FFF7B3FD0546504B5B6A91
:1011D00013F0020F21D1FFF7ABFD401B0228F5D918
:1011E00003201CE14A4A136823F0F803616943EACB
:1011F000C1031360DDE7474B00221A60FFF798FD3B
:101200000546434B1B6813F0020FD2D0FFF790FD49
:10121000401B0228F5D9032001E10120FFF704FF5C
:10122000236813F0040F00F09780394BDB6913F04B
:10123000805F33D1364BDA6942F08052DA61DB6984
:1012400003F080530193019B0125344B1B6813F479
:10125000807F25D0E368012B36D0002B4CD103F1E1
:10126000804303F504331A6A22F001021A621A6AF3
:1012700022F004021A622CE0274B00221A60FFF7CA
:1012800057FD0546224B5B6A13F0020FC8D0FFF7EB
:101290004FFD401B0228F5D90320C0E00025D4E70C
:1012A0001E4A136843F480731360FFF741FD06463E
:1012B0001A4B1B6813F4807FCCD1FFF739FD801BDC
:1012C0006428F5D90320AAE0114A136A43F0010308
:1012D0001362E36873B3FFF72BFD06460C4B1B6AE2
:1012E00013F0020F37D1FFF723FD801B41F2883343
:1012F0009842F3D9032092E0052B11D0044B1A6ACF
:1013000022F001021A621A6A22F004021A62E0E76D
:10131000001002400000424280044242007000403F
:10132000414B1A6A42F004021A621A6A42F0010240
:101330001A62CEE7FFF7FCFC06463B4B1B6A13F034
:10134000020F08D0FFF7F4FC801B41F2883398426B
:10135000F3D9032063E0E5B9E369002B5ED0324A9C
:10136000526802F00C02082A5BD0022B17D02F4BD8
:1013700000221A60FFF7DCFC04462B4B1B6813F0BD
:10138000007F47D0FFF7D4FC001B0228F5D90320CB
:1013900045E0254AD36923F08053D361DCE7234B32
:1013A00000221A60FFF7C4FC05461F4B1B6813F0B0
:1013B000007F06D0FFF7BCFC401B0228F5D90320B4
:1013C0002DE0236AB3F5803F1AD017494B6823F408
:1013D0007413226A606A024313434B60134B012269
:1013E0001A60FFF7A5FC04460F4B1B6813F0007F43
:1013F0000ED1FFF79DFC001B0228F5D903200EE05B
:10140000094A536823F40033A1680B435360DCE7B7
:10141000002004E0002002E0012000E0002002B0F3
:1014200070BD0120FBE700BF001002406000424297
:1014300010B487B0164C94E80F000DF1180C0CE9AD
:101440000F00238AADF80430124B5B6803F00C02E6
:10145000082A1AD1C3F38342624412F8102C13F401
:10146000803F05D10C4800FB02F007B010BC70476C
:10147000084B5B68C3F34043634413F8143C0748CC
:1014800000FB02F0B0FBF3F0EFE70448EDE700BF2C
:10149000983400080010024000093D0000127A0054
:1014A000624B1B6803F007038B420CD25F4A136840
:1014B00023F007030B431360136803F007038B4209
:1014C00001D00120704770B5036813F0020F17D0E8
:1014D00013F0040F04D0564A536843F4E06353609A
:1014E000036813F0080F04D0514A536843F4605363
:1014F00053604F4A536823F0F003846823435360DA
:101500000D460446036813F0010F52D04368012BC7
:1015100023D0022B28D0464A126812F0020F00F0A6
:10152000828043494A6822F0030213434B60FFF76D
:10153000FFFB06466368012B1DD0022B2AD03C4BD3
:101540005B6813F00C0F34D0FFF7F2FB801B41F205
:1015500088339842F3D9032064E0354A126812F4C4
:10156000003FDED101205DE0314A126812F0007FB9
:10157000D7D1012056E02E4B5B6803F00C03042BFF
:1015800017D0FFF7D5FB801B41F288339842F2D980
:10159000032047E0264B5B6803F00C03082B08D0C0
:1015A000FFF7C6FB801B41F288339842F2D9032033
:1015B00038E01E4B1B6803F00703AB420CD91B4AF3
:1015C000136823F007032B431360136803F007032A
:1015D000AB4201D0012025E0236813F0040F06D0B0
:1015E000134A536823F4E063E1680B4353602368B4
:1015F00013F0080F07D00E4A536823F46053216993
:1016000043EAC1035360FFF713FF094B5B68C3F361
:101610000313084AD35CD840074B18600020FFF73B
:1016200045FB002070BD0120FCE700BF0020024008
:1016300000100240AC3400084C000020014B186838
:10164000704700BF4C00002008B5FFF7F7FF044BC0
:101650005B68C3F3C223034AD35CD84008BD00BF14
:1016600000100240BC34000870B582B00446036824
:1016700013F0010F34D0384BDB6913F0805F3DD19C
:10168000354BDA6942F08052DA61DB6903F080534E
:101690000193019B0125314B1B6813F4807F2FD0F0
:1016A0002D4B1B6A13F4407311D0626802F4407230
:1016B0009A420CD0284A136A23F440702849012624
:1016C0000E6000260E60106213F0010F2CD1224A2A
:1016D000136A23F4407361680B431362002D34D105
:1016E000236813F0020F35D01B4A536823F440439C
:1016F000A1680B435360002002B070BD0025CAE70B
:10170000164A136843F480731360FFF711FB064613
:10171000124B1B6813F4807FC2D1FFF709FB801BBB
:101720006428F5D90320E7E7FFF702FB06460A4BDA
:101730001B6A13F0020FCAD1FFF7FAFA801B41F2BD
:1017400088339842F3D90320D6E7D36923F0805336
:10175000D361C5E70020CFE70010024000700040D1
:101760004004424208B5012803D0022822D00020BC
:101770002AE0194B1B6A40F202321A40B2F5817F0F
:1017800023D003F44073B3F5007F04D0B3F5407F5A
:1017900009D0002018E0104A526A12F0020FF5D06A
:1017A00049F6404010E00C4B1B6813F4003F0FD18A
:1017B000002009E0FFF748FF074B5B68C3F3813364
:1017C00001335B00B0FBF3F008BD4FF40040FBE7D2
:1017D0004FF22440F8E700BF0010024030B4026826
:1017E0009469A5B2D369916988B2854205D0D06960
:1017F00080B240EA014030BC704798B240EA0440F1
:10180000F9E70368186A5B6A9BB243EA00407047D5
:10181000002302E001330A38C0B20928FAD81B01BC
:10182000DBB218437047030903EB83035A0000F04F
:101830000F001044C0B2704710F0030F16D10D4BCB
:10184000A3FB00235B09642202FB13039BB27BB959
:10185000084BA3FB0023DB094FF4C87202FB130003
:1018600080B208B100207047012070470020704707
:10187000012070471F85EB5110B400F5FA6402296E
:1018800020D901EB4103C1EBC3011F4BA3FB0113A3
:1018900002EB5303234403EB94031C4AA2FB0424EE
:1018A000A3EB541303EBD41302331948A0FB03201A
:1018B0001A1A00EB52008008C0EBC000181AC0B220
:1018C00010BC704701EB4103C1EBC3010E4BA3FBFE
:1018D000011302EB5303234400F2CF7003EB900398
:1018E0000A4AA2FB0020A3EB501303EBD0130433EE
:1018F0000748A0FB03201A1A00EB52008008C0EB37
:10190000C000181ADBE700BF398EE3381F85EB51A2
:10191000254992242DE9F8430746884690F80F9010
:10192000447B857B002603E01E2D1FD80135013640
:1019300046453DD2012CF7D0032CF5D0052CF3D031
:10194000072CF1D0082CEFD00A2CEDD00C2CEBD0CA
:10195000042C15D0062C13D0092C11D00B2C0FD031
:10196000022CE4D11B2D12D80135E0E70C2C02D05B
:1019700001340125DBE709F1010901252C46D6E7F1
:101980001D2D01D80135D2E701340125CFE71C2DEB
:1019900004D01D2DCBD101340125C8E71FFA89F0F1
:1019A000FFF74AFF08B10135C1E701340125BEE761
:1019B00087F80F90E1B27973EAB2BA734846FFF73D
:1019C0005BFF3873BDE8F88338B50446FFF7B0F91C
:1019D000054623685A6812F0200F07D1FFF7A8F9CF
:1019E000401BB0F57A7FF4D9032004E05A6842F036
:1019F00010025A60002038BD38B5044602685368AA
:101A000023F010035360FFF793F9054623685B68E2
:101A100013F0200F07D1FFF78BF9401BB0F57A7F49
:101A2000F4D9032000E0002038BD38B505460C4647
:101A3000FFF7CAFF10B10123184638BD2B68220CEE
:101A40009A612B68A4B2DC612846FFF7D5FF0346F4
:101A50000028F1D00123EFE738B505460C46FFF723
:101A6000B3FF10B10123184638BD2B68220C1A624F
:101A70002B68A4B25C622846FFF7BEFF034600282D
:101A8000F1D00123EFE770B5002857D004460029B4
:101A900056D0037C012B55D00E460123037402233C
:101AA0004374BAB90D784B78C3EB03139A004FF423
:101AB000616303FB05258B781D4429462046FFF70B
:101AC000B4FF0646C8B104236374002323740126BF
:101AD000304670BD0878FFF7A6FE4FF4616505FB40
:101AE00000F57078FFF79FFEC0EB001083001D44E7
:101AF000B078FFF798FE0544DFE72268536823F0CB
:101B0000050353602046FFF77CFEB0F1FF3F01D094
:101B1000854204D80123637400232374D8E700F5B9
:101B2000A83101F5C0712046FFF796FF0028F1D0DB
:101B300004236374002323740126C9E70126C7E741
:101B40000126C5E70226C3E7002875D02DE9F04736
:101B50000546002972D003685B6813F0040F02D0B9
:101B60000120BDE8F08716460C46FFF737FE074612
:101B7000364AA2FB0032D20A4FF4616000FB1270B9
:101B8000334BA3FB00135B096370C3EB0313990092
:101B9000411AA170172A10D82270002E54D0207834
:101BA000FFF736FE20706078FFF732FE6070A07895
:101BB000FFF72EFEA0700020D3E7264BA3FB0738CB
:101BC0004FEA1848244BA3FB02131B0903EB430302
:101BD000D900531A23702846FFF713FE8246B0F14E
:101BE000FF3F03D087421CD2A0EB070A194BA3FB8F
:101BF00007394FEA1949194B03FB19794946284619
:101C0000FFF713FFE0B9BAF1FF3F0DD00AEB09016E
:101C10002846FFF721FFA8B941462846FFF77AFE7C
:101C2000BBE74FF0FF3AE1E751462846FFF714FFC4
:101C30000028F1D0012094E701207047012090E7AF
:101C400001208EE701208CE700208AE7C5B3A2912E
:101C50008988888807452EC2ABAAAAAA80510100AC
:101C6000C0B138B504460268536823F008035360D6
:101C7000FFF75EF8054623685B6813F0080F07D18D
:101C8000FFF756F8401BB0F57A7FF4D9032000E047
:101C9000002038BD0120704700285AD010B50446F6
:101CA000437C53B1022363742046FFF7D9FF40B150
:101CB000042363740123184610BD037401F0A6F9D0
:101CC000F0E72046FFF780FE002830D122685368F5
:101CD00023F007035360A36823B11F4A136B23F05B
:101CE000010313631C4AD36A23F46073A1680B4396
:101CF000D3626268B2F1FF3F1DD021688B6823F088
:101D00000F0343EA12438B602168CB681B0C1B0452
:101D100092B21343CB602046FFF76EFE0346A0B994
:101D20000022E27301226273A2736274C3E7042388
:101D300063740123BFE70120FFF714FD08B1421EC1
:101D4000DBE7042363740123B5E7042363740123F1
:101D5000B1E7012318467047006C004030B4036AB5
:101D600023F001030362036A4568846924F0730465
:101D70000A68224323F002048B6823434560826192
:101D80004A684263036230BC704730B4036A23F48C
:101D900080730362036A4568C46924F073040A68A7
:101DA000224323F400738C6843EA04234560C26134
:101DB0004A68C263036230BC704730B4036A23F4DC
:101DC00080530362036A4468C26922F4E6420D68E4
:101DD00042EA052223F400538D6843EA0533446048
:101DE000C2614A680264036230BC704710B4036A7F
:101DF000046A24F001040462846924F0F00444EAD3
:101E0000021223F00A030B438261036210BC704785
:101E100010B4036A23F0100303628469036A24F494
:101E2000704444EA023223F0A00343EA01138261C2
:101E3000036210BC7047836823F0700341F0070110
:101E400019438160704710B4846824F47F4442EAE7
:101E500003230B432343836010BC7047022380F8A5
:101E60003D300268136843F001031360012380F8DA
:101E70003D30002070470268D36843F00103D3600F
:101E80000268136843F00103136000207047026882
:101E9000D36823F00103D3600368196A41F2111279
:101EA000114208D1196A40F24442114203D11A6822
:101EB00022F001021A6000207047704790F83C3011
:101EC000012B7DD010B50446012380F83C3002235D
:101ED00080F83D300268936823F47F4323F0770352
:101EE00093600B68402B57D010D9702B3ED01FD871
:101EF000502B47D0602B32D1CA6849680068FFF781
:101F000087FF60212068FFF796FF28E0102B4DD057
:101F100008D9202B4FD0302B21D130210068FFF77A
:101F20008AFF1CE0DBB900210068FFF784FF16E0A0
:101F3000B3F5805F0ED0B3F5005F10D1CB684A686F
:101F400089680068FFF77FFF2268936843F4804345
:101F5000936004E00268936823F007039360012311
:101F600084F83D30002084F83C0010BDCB684A68FE
:101F700089680068FFF767FF2268936843F077037A
:101F80009360ECE7CA6849680068FFF72FFF5021AB
:101F90002068FFF750FFE2E7CA6849680068FFF76A
:101FA00025FF40212068FFF746FFD8E71021006891
:101FB000FFF741FFD3E720210068FFF73CFFCEE7A2
:101FC000022070477047704770477047704710B5E0
:101FD000044603681A6912F0020F11D0DA6812F091
:101FE000020F0DD06FF002021A610123037703681C
:101FF0009B6913F0030F70D0FFF7E6FF00232377F0
:1020000023681A6912F0040F12D0DA6812F0040F74
:102010000ED06FF004021A610223237723689B69B4
:1020200013F4407F5FD02046FFF7CEFF00232377D5
:1020300023681A6912F0080F12D0DA6812F0080F3C
:102040000ED06FF008021A61042323772368DB693E
:1020500013F0030F4ED02046FFF7B6FF002323777F
:1020600023681A6912F0100F12D0DA6812F0100FFC
:102070000ED06FF010021A61082323772368DB6902
:1020800013F4407F3DD02046FFF79EFF00232377C7
:1020900023681A6912F0010F03D0DA6812F0010FF9
:1020A00036D123681A6912F0800F03D0DA6812F073
:1020B000800F34D123681A6912F0400F03D0DA6818
:1020C00012F0400F32D123681A6912F0200F03D0AA
:1020D000DA6812F0200F30D110BDFFF774FF2046F0
:1020E000FFF773FF8AE72046FFF76DFF2046FFF7F3
:1020F0006CFF9BE72046FFF766FF2046FFF765FF72
:10210000ACE72046FFF75FFF2046FFF75EFFBDE725
:102110006FF001021A612046FFF754FFC1E76FF02C
:1021200080021A61204600F031F9C3E76FF04002E7
:102130001A612046FFF74AFFC5E76FF020021A61D7
:10214000204600F022F9C7E70368B0F1804F02D0C3
:102150000E4A904203D123F070034A681343B0F152
:10216000804F02D0094A904203D123F44073CA68D9
:10217000134323F080034A69134303608B68C362EF
:102180000B68836201234361704700BF0004004075
:10219000A8B110B5044690F83D305BB1022384F835
:1021A0003D30211D2068FFF7CFFF012384F83D302B
:1021B000002010BD80F83C3000F048FFEEE7012021
:1021C0007047A8B110B5044690F83D305BB10223CA
:1021D00084F83D30211D2068FFF7B6FF012384F805
:1021E0003D30002010BD80F83C30FFF766FEEEE782
:1021F0000120704730B4036A23F010030362036ABE
:102200004468826922F4E6420D6842EA052223F01E
:1022100020038D6843EA0513446082614A68826343
:10222000036230BC704738B590F83C30012B66D063
:102230000D460446012380F83C30022380F83D30EF
:102240000C2A1AD8DFE802F00719191920191919F0
:102250003419191947000068FFF780FD2268936957
:1022600043F0080393612268936923F004039361A8
:102270002268936929690B439361012384F83D30F7
:10228000002084F83C0038BD0068FFF7B3FF2268E7
:10229000936943F4006393612268936923F4806334
:1022A000936122689369296943EA01239361E4E712
:1022B0000068FFF76AFD2268D36943F00803D36121
:1022C0002268D36923F00403D3612268D3692969A2
:1022D0000B43D361D1E70068FFF76FFD2268D36934
:1022E00043F40063D3612268D36923F48063D3612C
:1022F0002268D369296943EA0123D361BDE702203B
:10230000C1E710B4012303FA01F4036A23EA0403CA
:102310000362036A8A401343036210BC704710B51E
:10232000044601220068FFF7ECFF2268136843F0BF
:1023300001031360002010BD90F83C30012B22D027
:1023400030B4012280F83C20022380F83D3004683C
:10235000636823F070036360046863680D682B434F
:1023600063600468A36823F08003A3600468A36823
:1023700049680B43A36080F83D20002380F83C307F
:10238000184630BC70470220704770477047000005
:1023900008B50548054B03604FF0FF334360002349
:1023A0008360FFF779FC08BDDC00002000280040B6
:1023B0002DE9F04188B00024049405940694079414
:1023C000344B9A6942F010029A619A6902F0100245
:1023D0000192019A9A6942F004029A619A6902F0A4
:1023E00004020292029A9A6942F008029A619B6979
:1023F00003F008030393039BDFF8A48022464FF405
:1024000000514046FEF703FE234F224641F67F115E
:102410003846FEF7FCFD214D22464FF47C4128460C
:10242000FEF7F5FD4FF40053049311230593069432
:102430000226079604A94046FEF7FCFC41F67F13EE
:1024400004934FF00108CDF814800694079604A970
:102450003846FEF7EFFC802304930594069404A904
:102460003846FEF7E7FC032304930594069404A979
:102470002846FEF7DFFC4FF47C430493CDF814802C
:102480000694079604A92846FEF7D4FC08B0BDE8D8
:10249000F08100BF0010024000080140000C014024
:1024A0000010014030B587B00024029403940494D6
:1024B0000594009401940F4D4FF080432B6023232B
:1024C0006B60AC6040F6B833EB602C61AC612846C1
:1024D000FFF75EFE4FF48053029302A92846FFF7F0
:1024E000EDFC0094019469462846FFF725FF07B0EC
:1024F00030BD00BFF800002030B58FB000240A9432
:102500000B940C940D9408940994019402940394F0
:102510000494059406940794154D164B2B606C603B
:10252000AC6040F2DC53EB602C61AC612846FFF7F5
:102530002FFE4FF480530A930AA92846FFF7BEFCEA
:102540002846FFF73EFE0894099408A92846FFF79D
:10255000F3FE60230193029403940594224601A99B
:102560002846FFF760FE284600F0A8FD0FB030BDFA
:102570009C0000200004004070B592B02022002191
:1025800009A800F075FF00240394049405940694B0
:1025900007940094019402940623089301250B9557
:1025A0000C9510230D9302260F964FF4E013119310
:1025B00008A8FEF74FFD0F23039304960594069495
:1025C0000794294603A8FEF76BFF00954FF480732C
:1025D00001936846FFF748F812B070BDF8B5FEF7F2
:1025E00089FBFFF7C9FFFFF7E3FEFFF7D1FEFFF717
:1025F00083FFFFF757FFBA4C2046FFF72FFC20461A
:10260000FFF739FC0021B748FFF789FEB64D29686E
:1026100040F2DC50FEF73CFBB448FEF79BF9B44CAB
:102620002060B448FEF796F96060B348FEF792F96F
:1026300028602368012B01D900222260AC4B5B6823
:10264000012B02D9AA4B00225A60A0F52F7040F24C
:102650009E23984203D9A44B4FF482621A60A74C80
:1026600000222146A648FFF76FFAA37813F0010F66
:102670007DD0A44B01221A7000224FF40051A248D1
:10268000FEF7C5FC0121A148FEF7BAFC002878D06E
:1026900080219F48FEF7B4FC48B9954B1B6949F669
:1026A0004042934200F053810133914A136101216A
:1026B0009648FEF7A5FC20B98D4B1B7A002B40F005
:1026C000588102219148FEF79BFC20B9884B1B7A68
:1026D000002B40F0998101218C48FEF791FC0028E5
:1026E00000F0E08102218948FEF78AFC002800F012
:1026F0002A8280218648FEF783FC012800F08B8225
:1027000001218248FEF77CFC012800F09D82022115
:102710007E48FEF775FC012800F0A382744B1B7DF8
:10272000002B00F0AB82022B00F21183734C607817
:10273000784A794BA3FB0051C90801EB810675006B
:10274000401B82F8330082F832102178A3FB01038A
:10275000DB0803EB83046000091A82F8311082F869
:102760003030012382F8353082F8343011E3654B84
:1027700000221A7001224FF400516348FEF747FC13
:1027800080E702216148FEF73BFC002880D1584BCE
:102790001C7A002C7FF47CAF1D46DB680133EB60B4
:1027A0000120FEF7CBFAEB68B3F57A7F7FF670AFC6
:1027B0000022EA60FEF712F9012503E0E8B2FEF715
:1027C000CFF90135042DF9DD4548FFF760FB012005
:1027D000FEF7A0F9464B5B6803EB43039A004D4BB1
:1027E000985CFEF7E3F940F24E714FF4FA60FEF7A1
:1027F0004FFA01214548FEF703FC0028F9D00221D9
:102800004248FEF7FDFB0028F3D03220FEF796FA8F
:10281000264601252F46002F00F08B8001213B48E2
:10282000FEF7EEFB68B102213848FEF7E9FB00280D
:1028300037D080213648FEF7E3FB0028EBD127464E
:10284000E9E72846FEF78CF9032D19D9FEF7C6F8FB
:102850003D46274B5B6803EB43039A002D4B134423
:10286000985DFEF7A3F92846FEF754F901212748A1
:10287000FEF7C6FB0028F9D03220FEF75FFAD2E758
:102880000135EDB2FEF7AAF8022DE2D9184B1B680C
:1028900003EB43039A001F4B1344985DFEF786F940
:1028A000E1E7FEF79BF80A2E17D80136F6B2022DA3
:1028B00034D90F4B1B6803EB43039A00154B1344A9
:1028C000985DFEF773F902211048FEF799FB002886
:1028D000F9D03220FEF732FAABE72646E7E700BF31
:1028E000F80000209C000020F0000020F07F00088D
:1028F0006C000020F47F0008F87F0008940000209E
:10290000DC000020F400002000100140000C014019
:102910000008014008000020CDCCCCCC964B5B6871
:1029200003EB43039A00954B1344985DFEF73EF981
:10293000C9E7FEF753F8012403E0E0B2FEF710F90F
:102940000134042CF9DD8E48FFF795FAA0E68A4998
:102950000A7AB2FA82F252090A7232B10A460121A7
:1029600011750133844A1361A1E6834A0021117570
:10297000F7E7814B1B7D012B0AD0022B13D0032BD1
:1029800026D1804B9B78CBB1013B7E4A93701FE0F0
:102990007C4B1B781BB1013B7A4A137018E017334C
:1029A000784A137014E0774B5B781BB1013B754A92
:1029B00053700DE03B33734A537009E03B33714A67
:1029C000937005E001336C4A93610120FEF7B6F97C
:1029D00001216D48FEF714FB18B9674B9B69C72BA3
:1029E000F0D9654B9B69C72B0AD8634B1B7A002B28
:1029F0003FF467AE002263496448FFF744F860E69D
:102A00006420FEF79BF9F0E75B4B1B7D012B0BD09D
:102A1000022B15D0032B29D15A4B9B783A2B1BD86C
:102A20000133584A937021E0564B1B78162B03D87C
:102A30000133544A137019E0173B524A137015E0E2
:102A4000504B5B783A2B03D801334E4A53700DE05C
:102A50003B3B4C4A537009E03B3B4A4A937005E0CC
:102A60000133454AD3610120FEF768F90221464847
:102A7000FEF7C6FA18B9404BDB69C72BF0D93E4BBD
:102A8000DB69C72B0AD83C4B1B7A002B3FF423AEE3
:102A900000223C493D48FEF7F6FF1CE66420FEF7A5
:102AA0004DF9F0E702213848FEF7AAFA01287FF431
:102AB00019AE314B1B7A002B7FF414AE2E4B9B6961
:102AC000B3F5FA7F06D2FEF739F92B4A9369013341
:102AD000936107E62E4B00221A70274B5B6873BB8D
:102AE0000133254A5360254B002283F8302083F8B8
:102AF000312083F8362083F8372001212248FEF761
:102B00007FFA0028F9D0002140F2DC50FEF7C0F82F
:102B1000FDF70CFF1F4D2846FDF728FF164C2168D6
:102B20002846FDF73BFF61681B48FDF737FF1B4B4D
:102B300019681B48FDF732FFFDF704FFD2E50E4B85
:102B400000225A60CFE701210F48FEF759FA012809
:102B50007FF4CFAD084B1B7A002B7FF4CAAD064B38
:102B6000DB69B3F5FA7F1DD2FEF7E8F8024AD369B4
:102B70000133D361BDE500BF6C00002008000020D8
:102B8000F800002094000020000C0140DC00002030
:102B9000F4000020F07F0008F47F0008F00000201F
:102BA000F87F0008AC4B00221A70AC4B1B6873BB5B
:102BB0000133AA4A1360AA4B002283F8322083F81B
:102BC000332083F8342083F835200221A548FEF70E
:102BD00017FA0028F9D0002140F2DC50FEF758F82F
:102BE000FDF7A4FEA04D2846FDF7C0FE9B4C2168D2
:102BF0002846FDF7D3FE61689C48FDF7CFFE9C4B4D
:102C000019689C48FDF7CAFEFDF79CFE71E5934BE1
:102C100000221A60CFE7914B1B69013B49F63E4207
:102C2000934209D88D4B1B7A33B18C4B1B7D022B01
:102C300006D80133894A1375884B00221A615FE573
:102C4000864B01221A75F7E7844B00229A61DB68F4
:102C50001BB1824B012283F82020804B0022DA60D6
:102C600055E57E4B0022DA61DB681BB17B4B01220C
:102C700083F82020794B0022DA604FE57E4C6178A2
:102C8000A3F13333A3FB0102D20802EB820045001B
:102C9000491BCDB27948C570D1B281702278A3FBAF
:102CA0000243DB0803EB83067400121BD2B24270AE
:102CB000DBB203706A48012480F8354080F8344064
:102CC00080F8374080F836406D48007883420BD159
:102CD0006B4B5B789A4207D1694B9B78994203D141
:102CE000674BDB789D4227D000235B4A137006E0D8
:102CF0005B4A1A4492F83010614AD1540133032BD5
:102D0000F6DD002414E00133032B0DDC5B4AD15CBB
:102D10005B4AD25C9142F6D0514A111991F83810B1
:102D20001A4482F83010EEE73220FEF707F801343B
:102D3000092C01DC0023E7E70023032B29DC4F4AA1
:102D4000D15C474A1A4482F830100133F5E74A4B08
:102D50009978434A4B4BA3FB0103DB0803EB830445
:102D60006000091A82F8331082F83230002382F8AA
:102D7000353082F834300CE001213A48FEF740F952
:102D800000285BD002213748FEF73AF9002800F00E
:102D9000C080324B93F82030002B3FF460AC2E4BB8
:102DA00000221A70324B1968374AA2FB013292098D
:102DB0002B4880F830204FF47A7303FB1213334A08
:102DC000A2FB03435B0980F83130A2FB01325209B8
:102DD000642303FB12122B4BA3FB0242D20880F8A0
:102DE0003220A3FB0123DB0803EB83035A008B1A79
:102DF00080F8333080212648FEF702F90028BBD145
:102E0000164C002184F8201040F2DC50FDF740FF02
:102E1000FDF78CFD144D2846FDF7A8FD21682846D6
:102E2000FDF7BCFD61681148FDF7B8FD104B19684E
:102E30001048FDF7B3FDFDF785FD9DE70A20FDF77E
:102E40007DFF0B4B1B68B3F52F7F02D9013B084A6E
:102E5000136000244EE000BFF40000206C0000204E
:102E600008000020000C0140F07F0008F47F0008FB
:102E7000F0000020F87F00089400002038010020B6
:102E800098000020CDCCCCCCD34D62101F85EB51E7
:102E900000080140464B1B68B3F52F7F02D9013B68
:102EA000434A1360424B1968424AA2FB013292091D
:102EB000414880F830204FF47A7303FB12133F4AE5
:102EC000A2FB03535B0980F83130A2FB01325209A7
:102ED000642303FB12123A4BA3FB0252D20880F880
:102EE0003220A3FB0123DB0803EB83035A008B1A78
:102EF00080F8333001213348FEF782F800287FF450
:102F000041AF0A20FDF71AFF452CC3D80134A4B203
:102F1000C8E70A20FDF712FF254B1B6840F2595203
:102F2000934202D80133224A1360002430E0204B40
:102F30001B6840F25952934202D801331C4A136075
:102F40001B4B19681B4AA2FB013292091A4880F8F0
:102F500030204FF47A7303FB1213184AA2FB035379
:102F60005B0980F83130A2FB01325209642303FB74
:102F70001212134BA3FB0252D20880F83220A3FB9B
:102F80000123DB0803EB83035A008B1A80F83330EC
:102F900002210C48FEF734F800287FF4FAAE0A202C
:102FA000FDF7CCFE452CC2D80134A4B2C8E700BF5F
:102FB000F0000020D34D6210080000201F85EB5167
:102FC000CDCCCCCC000C014082B00E4B9A6942F0C3
:102FD00001029A619A6902F001020092009ADA698C
:102FE00042F08052DA61DB6903F080530193019B68
:102FF000054A536823F0E06343F00073536002B066
:10300000704700BF001002400000014002680C4BF6
:103010009A4200D0704700B583B0FDF7FFFF094B1F
:10302000DA6942F00062DA61DB6903F00063019360
:10303000019B054B01221A6003B05DF804FB00BF41
:1030400000280040001002403C04424200B583B01A
:103050000368B3F1804F05D0164A934216D003B0EF
:103060005DF804FB03F50433DA6942F00102DA612A
:10307000DB6903F001030093009B002211461C2032
:10308000FDF782FE1C20FDF7B3FEE8E70A4BDA6984
:1030900042F00202DA61DB6903F002030193019B53
:1030A000002211461D20FDF76FFE1D20FDF7A0FE3A
:1030B000D5E700BF000400400010024000B587B013
:1030C000002302930393049305930268124B9A42E0
:1030D00002D007B05DF804FB03F503339A6942F0B0
:1030E00008029A619B6903F008030193019B102376
:1030F0000293122303930223059302A90748FDF7C5
:1031000099FE074A536823F4406343F0E06343F4B5
:1031100000635360DDE700BF00040040000C014085
:10312000000001407047FEE7FEE7FEE7FEE770475C
:103130007047704708B5FDF7EFFD08BD00000000BF
:1031400010B5854B196840F2DC50FDF7A1FD834CAA
:103150002078FDF705FD23780133DBB22370042BC3
:1031600001D9012222707E4B1B78032B3AD0012B10
:1031700040D0022B71D0032B00F0A2804FF080438F
:1031800040F6B832DA62FDF729FC4FF4E060FDF753
:1031900087FDFDF771FC4FF41470FDF781FDFDF71D
:1031A0001DFC6E4B1878431E6E4AD35C002B40F01A
:1031B0009D806A4B1B78022B40F29B806A4A1478F0
:1031C000013B6A4AD15C04EB44039A00684B134408
:1031D000585CFDF7EBFC012C00F0AD806548FEF774
:1031E000F6FE10BD5D4A1278022AC0D85B4A032160
:1031F0001170BCE7594B1B78012B16D0022B1AD04B
:10320000032B1ED0042B22D0534B1868FDF7E2F895
:103210004DA3D3E90023FDF757F9FDF767FB0146FE
:1032200040F2DC50FDF734FDADE74FF080424FF443
:103230007A61D162E2E74FF080424FF47A61D16265
:10324000DEE74FF080424FF49661D162DAE74FF04B
:1032500080434FF49662DA62D6E7404B1B78032B2B
:1032600016D0042B1AD0012B1ED0022B22D03A4BA1
:103270001868FDF7AFF834A3D3E90023FDF724F96C
:10328000FDF734FB014640F2DC50FDF701FD7AE723
:103290004FF080424FF47A61D162E2E74FF0804212
:1032A0004FF47A61D162DEE74FF080424FF49661CD
:1032B000D162DAE74FF080434FF49662DA62D6E7E4
:1032C0004FF0804340F6C412DA62234B1868FDF7D2
:1032D00081F81FA3D3E90023FDF7F6F8FDF706FBFD
:1032E000014640F2DC50FDF7D3FC4CE7FDF712FC41
:1032F0005FE7214A1478013B1C4AD15C04EB44038C
:103300009A001B4B1344585CFDF750FC134B1B7881
:10331000022B7FF460AF194B1B78002B3FF45BAF9F
:10332000154B1B7803EB43039A00114B1344987A17
:10333000FDF73CFC4FE74FF08042D36A03F57A7308
:10334000D3624BE7AFF30080CDCCCCCCCCCCEC3F00
:103350009A9999999999E93FF00000204A00002034
:10336000800000203C0000206C000020380000207D
:1033700008000020F800002070000020F400002069
:1033800008B50248FEF723FE08BD00BF9C000020E0
:103390000F4B1A6842F001021A6059680D4A0A4040
:1033A0005A601A6822F0847222F480321A601A6815
:1033B00022F480221A605A6822F4FE025A604FF406
:1033C0001F029A60044B4FF000629A60704700BF82
:1033D000001002400000FFF800ED00E0002103E0D3
:1033E0000B4B5B58435004310A480B4B42189A422E
:1033F000F6D30A4A02E0002342F8043B084B9A4203
:10340000F9D3FFF7C5FF00F00FF8FFF7E7F87047B3
:10341000CC340008000000205000002050000020A4
:103420003C010020FEE7000070B500250C4E0D4C5D
:10343000A41BA410A54209D100F022F800250A4ED1
:103440000A4CA41BA410A54205D170BD56F8253026
:1034500098470135EEE756F8253098470135F2E7F1
:10346000C4340008C4340008C4340008C834000858
:1034700003460244934200D1704703F8011BF9E769
:10348000F8B500BFF8BC08BC9E467047F8B500BF51
:08349000F8BC08BC9E46704721
:1034980002030405060708090A0B0C0D0E0F10108D
:1034A8000102000000000000000000000102030407
:0C34B800060708090000000001020304E0
:0434C40035010008C6
:0434C80011010008E6
:1034CC0001000000100000000B00070204050601BB
:1034DC00090A08030A0102030405060708090B0080
:1034EC0003080A09010605040207000B000B090872
:1034FC00070605040302010A141414140101010146
:10350C0001000209030804070506010000A24A0491
:04000005080033DDDF
:00000001FF
